:1000000000020020E10200004D0300005503000043
:100010005D0300005D0300005D03000000000000C0
:100020000000000000000000000000005D03000070
:100030005D030000000000005D0300005D030000A0
:100040005D0300005D0300005D0300005D03000030
:100050005D0300005D0300005D0300005D03000020
:100060005D0300005D0300005D0300005D03000010
:100070005D0300005D0300005D0300005D03000000
:100080005D0300005D0300005D0300005D030000F0
:100090005D0300005D0300005D0300005D030000E0
:1000A0005D0300005D0300005D0300005D030000D0
:1000B0005D0300005D0300005D0300005D030000C0
:1000C0005D0300005D0300005D0300005D030000B0
:1000D0005D0300005D0300005D0300005D030000A0
:1000E0005D03000000000000000000005D03000050
:1000F0005D0300005D0300005D0300005D03000080
:100100005D0300005D0300005D0300005D0300006F
:1001100000000000000000005D0300005D0300001F
:100120005D0300005D0300005D0300005D0300004F
:100130005D0300005D0300005D0300005D0300003F
:1001400000000000000000000000000000000000AF
:100150005D0300005D0300005D0300005D0300001F
:10016000000000000000000000000000000000008F
:10017000000000000000000000000000000000007F
:10018000000000000000000000000000000000006F
:10019000000000000000000000000000000000005F
:1001A000000000000000000000000000000000004F
:1001B0005D0300005D0300005D0300005D030000BF
:1001C0005D0300005D0300005D0300005D030000AF
:1001D0005D0300005D0300005D0300005D0300009F
:1001E0005D0300005D0300005D03000000000000EF
:1001F000000000005D0300005D0300005D030000DF
:100200005D0300005D03000000000000000000002E
:100210005D0300005D0300005D0300005D0300005E
:100220005D0300005D0300005D0300005D0300004E
:100230005D0300005D0300005D0300005D0300003E
:100240005D0300005D0300005D0300005D0300002E
:100250005D0300005D0300005D0300005D0300001E
:100260005D0300005D0300005D03000080B582B007
:1002700000AF184800F060F900BF164800F042F9DE
:10028000034683F00103DBB2002BF6D108211248AC
:1002900000F029F9082208210F4800F021F9002375
:1002A0007B6002E07B6801337B607B680B4A934292
:1002B000F8D900220821084800F012F900237B60D9
:1002C00002E07B6801337B607B68044A9342F8D983
:1002D000E0E700BF050800F0005002403F0D0300BA
:1002E00080B582B000AF134B7B60134B3B6007E0DF
:1002F0003B681A1D3A607A68111D796012681A60AD
:100300003B680E4A9342F3D30E480F494FF0000268
:100310008842B8BF40F8042BFADB094A084B1B6837
:1003200043F470031360FFF7A1FF00BF0837BD4619
:1003300080BD00BF68050000000000200000002014
:1003400088ED00E0000000200002002080B400AF33
:10035000FEE700BF80B400AFFEE700BF80B400AF8F
:10036000FEE700BFD0F8003412F0010F10B500F521
:10037000806414BF0B438B43236012F0020FD0F84C
:10038000202400F5846314BF114322EA010119609F
:1003900010BDF0B5560906F00306002451FA04F525
:1003A00015F0010F11D0D0F8C47F65004FF0030C99
:1003B0000CFA05FC27EA0C07C0F8C47FD0F8C47F0C
:1003C00016FA05F53D43C0F8C45F0134082CE5D1A9
:1003D000D0F8004512F0010F00F5A06514BF0C43E2
:1003E0008C432C60D0F8045500F5A06412F0020F85
:1003F00004F1040414BF0D438D432560D0F8084573
:1004000012F0040F00F5A16514BF0C438C432C605F
:10041000D0F8184512F0080F00F5A36514BF0C437F
:100420008C432C60D0F83C4512F0100F00F5A6620A
:1004300002F10C0214BF0C438C431460D0F80C453D
:1004400000F5A06213F0010F02F10C0214BF0C437F
:100450008C431460D0F8102513F0020F00F5A2644D
:1004600014BF0A438A432260D0F8144500F5A26203
:1004700013F0040F02F1040214BF0C438C43146008
:10048000D0F81C4500F5A26213F0080F02F10C022F
:1004900014BF0C438C431460D0F8444500F5A862A7
:1004A00013F4007F02F1040214BF0C438C43146068
:1004B000D0F8402513F4407F00F5A86414BF0A4328
:1004C0008A43226000F5A56223B9D0F8283543EAB3
:1004D000010103E0D0F8283523EA01011160F0BDE5
:1004E00040F82120704770B50122082305460C46CC
:1004F000FFF74FFF284621460122BDE87040FFF775
:1005000031BF00000B4B00F47F4200F0FF0003EB13
:100510001223800003F0704240F0007023F07F430C
:10052000104323F4700340EA43131868003818BFDF
:100530000120704700EA0F400A4B00F47F4200F0B0
:10054000FF0003EB1223800003F0704240F00070C4
:1005500023F07F43104323F4700340EA4313012246
:080560001A60704700E60F402D
:04056800F8B500BF23
:04056C00F8B500BF1F
:00000001FF
